:020000040800F2
:10000000089F00205902000819450008B939000866
:1000100089430008C90F0008B992000800000000D9
:10002000000000000000000000000000A101000826
:10003000611A000800000000F50100088D6000084A
:1000400073020008730200087302000873020008BC
:1000500073020008730200087302000873020008AC
:10006000730200087302000873020008730200089C
:10007000730200087302000873020008730200088C
:10008000730200087302000873020008730200087C
:100090003912000873020008730200087302000896
:1000A000730200087302000873020008616100080F
:1000B000730200087302000873020008730200084C
:1000C000730200087302000873020008730200083C
:1000D00073020008C171000873020008F57100087E
:1000E000730200087302000873020008730200081C
:1000F000730200087302000873020008730200080C
:1001000073020008730200087302000873020008FB
:10011000456D0008730200087302000873020008AE
:1001200073020008730200087302000873020008DB
:1001300073020008730200087302000873020008CB
:10014000730200087302000873020008354E0008AD
:1001500073020008730200087302000873020008AB
:10016000730200087302000873020008730200089B
:10017000730200087302000873020008730200088B
:100180007302000873020008DFF810D000F018FCBA
:100190000048004795BF0008AFF30080089F00208B
:1001A0002A4B19680868B0E8F04F80F30988BFF35C
:1001B0006F8F4FF0000080F311887047000000003F
:1001C00006480068006880F3088862B661B6BFF32D
:1001D0004F8FBFF36F8F00DF00BF00BF08ED00E05F
:1001E000DFF80C00016841F470010160704700BF46
:1001F00088ED00E0EFF30980BFF36F8F134B1A68AF
:100200001EF0100F08BF20ED108A20E9F04F10609B
:1002100008B44FF0500080F31188BFF34F8FBFF345
:100220006F8F0DF043FF4FF0000080F3118808BC82
:1002300019680868B0E8F04F1EF0100F08BFB0EC66
:10024000108A80F30988BFF36F8F7047BC000020CD
:10025000EFF30580704700000648804706480047D6
:10026000FEE7FEE7FEE7FEE7FEE7FEE7FEE7FEE766
:10027000FEE7FEE7A16000088901000840EA0103EB
:100280009B0703D009E008C9121F08C0042AFAD24C
:1002900003E011F8013B00F8013B521EF9D2704710
:1002A000D2B201E000F8012B491EFBD270470022B8
:1002B000F6E710B513460A4604461946FFF7F0FF65
:1002C000204610BD421C10F8011B0029FBD1801AEA
:1002D000704710B5002200E0521C835C8C5CA34286
:1002E00001D1002BF8D1D8B2E1B2401A10BD2DE9EE
:1002F000FE4F804681EA0300C00F0C46009021F0BB
:10030000004123F00045B8EB0200A94105D2404668
:10031000214690461C460B46024623F000401043FF
:1003200047D0270DC7F30A00C3F30A510290401AC1
:10033000019040286BDAC3F3130040F4801B00984F
:10034000924620B10023D2EB030A63EB0B0B01981A
:100350005946C0F14002504600F0FDF906460D46F0
:1003600050465946019A00F005FA10EB0800614129
:10037000002487EA115284EAE7731A4340D0009AB6
:1003800062B3019A012A4FEA075215DC001B61EBA8
:1003900002014FF0004202EA0752CDE90042001C80
:1003A00041F5801132462B4600F03CFA03B0BDE81F
:1003B000F08F40462146F9E7001B61EB0201001C6B
:1003C00041F5801300185B412018A2F5001747EB98
:1003D000030140EAD570B6196D4111E06D084FEA8E
:1003E000360645EAC0754FEA0752001B61EB020171
:1003F000001C41F5801149084FEA300000195141B5
:1004000032462B4603B0BDE8F04F00F0FCB900982F
:10041000012240000023D0EB020263EBE07300985E
:1004200021464FEAE074B8EB000061EB0401E9E714
:1004300083F000435BE781F0004158E72DE9FE4F70
:1004400081EA030404F0004421F0004100944FF0DD
:10045000000B23F0004350EA01045ED052EA03048B
:100460005BD0C3F30A54C1F30A552C44A4F2F3340D
:100470000194A0FB0254C1F3130141F48011C3F3B2
:10048000130343F4801301FB024400FB034E840A70
:10049000970A44EA815447EA8357A4FB0768029508
:1004A0008D0A05FB07854FEA932C04FB0C542705A6
:1004B000029D4FEA065847EA1637B5EB08056EEB82
:1004C000070C870E920E47EA811742EA8312A7FBB8
:1004D0000201B6EB0B0164EB00042B0D43EA0C3375
:1004E0005E1844EB1C50DA465146E7FB0201C5F3A7
:1004F00013044FEA0B3343EA14534FEA0432019CCE
:1005000043EA0603A4F10C040294009CCDE900B474
:1005100000F088F903B0BDE8F08F00200146F9E74C
:100520002DE9F04D81EA030404F0004B21F0004571
:1005300014464FF0000A23F0004150EA050220D093
:1005400054EA01021DD0C5F30A570246C5F313034E
:10055000C1F31300C1F30A5640F4801543F480132D
:10056000A7EB0608101BD64608F2FD3873EB050012
:1005700002D308F1010801E092185B41B8F1000FC5
:1005800003DA00200146BDE8F08D00204FF4801111
:10059000064684460EE0171B73EB050705D3121BB6
:1005A00063EB050306434CEA010C49084FEA3000AF
:1005B00092185B4150EA0107EDD152EA030012D0D4
:1005C00082EA040083EA0501084305D0101BAB4111
:1005D00006D20122002306E000224FF0004302E091
:1005E0006FF0010253101AEB06004CEB085110EBB0
:1005F0000A0041EB0B01BDE8F04D00F004B90EB567
:10060000C10F80EAE0700844CA07002140F233437A
:100610008DE80E000A460B4600F004F903B000BD59
:100620000EB540F2334102910021CDE900110A4696
:100630000B4600F0F7F803B000BD00F0004230F0C8
:1006400000400AD0C10D01F56071C0F3160042EA06
:100650000151C2084007114370470020014670470E
:1006600030B5041E71F1000404DB4FF00044404239
:1006700064EB0101141E73F1000405DB1C464FF00E
:100680000043524263EB0403994208BF904230BDDD
:1006900001F0004330B421F0004150EA010206D0DD
:1006A0000A0DA2F56072C1F31301002A02DC30BC0E
:1006B00000207047440F44EAC104C100E01830BC78
:1006C00000EBC25000F068B830B50B460146002080
:1006D0002022012409E021FA02F59D4205D303FA04
:1006E00002F5491B04FA02F52844151EA2F1010285
:1006F000F1DC30BD2DE9F05F0546002092469B46B7
:1007000088460646814640241BE028464146474627
:10071000224600F067F953465A46C01A914110D359
:1007200011461846224600F016F82D1A67EB01080C
:100730004F4622460120002100F00DF817EB00097A
:100740004E41201EA4F10104DFDC484631462A4612
:100750004346BDE8F09F202A04DB203A00FA02F16C
:10076000002070479140C2F1200320FA03F319439F
:1007700090407047202A06DBCB17203A41FA02F05E
:1007800043EAE07306E041FA02F3D040C2F12002EE
:1007900091400843194670470029A8BF7047401C84
:1007A000490008BF20F00100704710B4B0FA80FC87
:1007B00000FA0CF050EA010404BF10BC704749B1C4
:1007C000CCF1200421FA04F411FA0CF118BF012134
:1007D00021430843A3EB0C01CB1D4FEA00614FEA14
:1007E000102042BF002010BC704700EBC3501044E3
:1007F0000029A4BF10BC7047401C490008BF20F06E
:10080000010010BC704710B5141E73F1000408DA23
:10081000401C41F1000192185B411A4301D120F0C4
:10082000010010BD2DE9F04D92469B4611B1B1FA81
:1008300081F202E0B0FA80F220329046FFF78BFF9F
:1008400004460F4640EA0A0041EA0B0153465A4665
:10085000084313D0114653EA010019D0C8F14002F1
:10086000504600F0BFF805460E46504659464246EF
:10087000FFF771FF084305D0012004E02046394608
:10088000BDE8F08D0020054346EAE0762C4337436F
:100890000A986305E40AA0EB08000022FD0A44EA76
:1008A00047540A3002D500200146E9E70105101936
:1008B0006941DDE9084500196941BDE8F04DA2E74D
:1008C00070B521F0004303430CD0C1F30A55002456
:1008D000D5EB040564EB0403D617AD1AB34102DB74
:1008E0000020014670BD201841EB025170BD2DE97A
:1008F000F04D00231A461B1A8A4103DB00200146F3
:10090000BDE8F08DC1F30A52C1F3130141F4801523
:100910004FF0000BD10702D100186D41521E002785
:10092000044640F2FF11384601EB620A3E4680461B
:10093000024600204FF4801100F054F8C2197141B2
:10094000BB1846EB0100B4EB030C75EB000C04D3B1
:10095000E41A65EB000517460E46241908F101005C
:100960006D4180463428E3DDF91946EB0600091B8A
:10097000A84103D24FF0FF32134601E00022134694
:100980001BEB070046EB0A51BDE8F04DFFF73BBFFC
:10099000C1F30A52C1F3130140F2FF3341F4801155
:1009A0009A4202DA00200146704740F233439A42ED
:1009B000A2F2334202DC524200F014B8FFF7CBBE81
:1009C000064C074D06E0E06840F0010394E807009C
:1009D00098471034AC42F6D3FFF7DAFB540B01080A
:1009E000740B0108202A04DB203A21FA02F00021CE
:1009F000704721FA02F3D040C2F12002914008432F
:100A00001946704770B58C1810F8015B15F0070394
:100A100001D110F8013B2A1106D110F8012B03E097
:100A200010F8016B01F8016B5B1EF9D12B0705D49F
:100A30000023521E0DD401F8013BFAE710F8013BE8
:100A4000CB1A921C03E013F8015B01F8015B521E04
:100A5000F9D5A142D8D3002070BD000070B58CB08C
:100A60000121022004F094FD032501268DF81C507D
:100A7000002406968DF81F4006A91D4801F0D4FEFB
:100A80000121042004F084FD042006908DF81C5000
:100A90008DF81F4006A9174801F0C6FE01210D027E
:100AA000284604F099FD0121284604F0A1FD00210B
:100AB000284604F09DFD089428020B94CDE9090412
:100AC00008A800F025F88DF8044000948DF8054042
:100AD00002940494084C8DF814606946204600F096
:100AE00037F80121204600F009F80CB070BD000075
:100AF00000040240000802400020014000298168F3
:100B000002D041F0010101E021F001018160704754
:100B1000084B10B5D3F8042307490A40D0E9001464
:100B20002143D0E90240044321431143C3F8041395
:100B300010BD000000200140E030FCFFC06C80B21E
:100B400070470246002012680A4200D00120704718
:100B500030B542680F4B0C791A400B6842EA042208
:100B60001343436082680C4B4D791A40D1E903432B
:100B700023438C6844EA4504234313438360C26AD9
:100B8000097D22F47002491EC9B242EA0151C162D4
:100B900030BD0000FFFEFFFCFDF7FFC070B507266B
:100BA00009290AD9C568A1F10A0404EB4404A64046
:100BB000B543A3401D43C56007E0056901EB41044F
:100BC000A640B543A3401D4305611F23072A09D250
:100BD000446B521E02EB820293409C4391400C43B3
:100BE000446370BD0D2A09D2046BD21F02EB82024E
:100BF00093409C4391400C43046370BDC46A0D3A1A
:100C000002EB820293409C4391400C43C46270BD4E
:100C1000816841F08041816070470021417081709E
:100C2000C17001710170704770B5384B86B0384A99
:100C3000D868401CD860642801D2012806D1012060
:100C4000D86092ED170A0DF06FFA9860D2ED0E0A97
:100C50009FED300A60EE800AFDEEE00A10EE900A89
:100C6000002800DA4042D2ED110A20EE800ABDEEE3
:100C7000C00A10EE101A002900DA49425C789CB1D3
:100C80000025254C5D70E678012E0FD0234C95B3DE
:100C9000B4F91C30B4F91A20B4F9181006B020A029
:100CA000BDE8704009F030B90125EAE72149204844
:100CB0009FED211A62C9436BCDE90256CDE90413B9
:100CC00090ED080AFDEEC00A90ED070A20EE010A39
:100CD000BDEEC00A8DEC020A90ED0B0A536E126E47
:100CE000BDEEC00A15A010EE101A09F00DF9002093
:100CF000E07006B070BDFFE7B4F91C200092CAB2E4
:100D0000C1B29B6815A009F0FFF8F2E728000020A7
:100D1000440500200000C842830100202803002071
:100D20007B4225643A25643A25647D240000000056
:100D30003C0200206881002000007A447B43256447
:100D40003A25643A25643A25643A25643A25643A9A
:100D500025643A25643A25647D2400007B4125649E
:100D60003A25643A25643A25647D2400F0B5224B87
:100D700000279979DE79491CCDB2711CCCB2597922
:100D80002B2812D081B31A7903F1240C521CD2B251
:100D90000CEB810C1A715CF804CC1CF802C0844581
:100DA0000CD19D71222D06D01CE0491C59711F7178
:100DB0009D71DC7116E09F71DF7111E00E4D1C35E5
:100DC00005EB810555F8045CAA5C824203D0012939
:100DD0000BD10D2E09D3DC712C2C03D1DF719F7147
:100DE0005F711F710120F0BD03E09F71DF715F71C2
:100DF0001F710020F7E70000580000204FF4FA614F
:100E000081604910C16040F2DC51416070470000D0
:100E10002DED028B82B00AF085FEDFF89C81DFF8B1
:100E20009091644D40F6B83A40F2CE4BA8F13806A6
:100E300000279FED628A01900A2101A80CF0ACFE08
:100E40006868504501DA401C686001F0EDFE00F072
:100E5000F7FC642008F032FA04F0B8FE6868A0F2EB
:100E6000E931C7290AD2F0EE480AB0EE601A9FEDC8
:100E7000540A01F037FA0CF04FF811E0A0F2B1403B
:100E80001D280DD2B0EE480A012188F80110B0EEFD
:100E9000401AF0EE400A01F025FA4FF4FA7068812A
:100EA0006968594544DD687A58B9B078401CC0B2C9
:100EB000B070642805D986ED018A86ED028A86ED38
:100EC000038A99F806004C46012805D0307841077E
:100ED0001FD501F03BFE2BE06079012820790AD074
:100EE00030B1677104F11C0090EC030A01F0FAF9CB
:100EF000607928B11CE00028F3D104F12800F3E761
:100F00002079A8B9B0EE480AB0EE401AF0EE400AD7
:100F10000CE0010702D504F067FC09E0800702D568
:100F200004F0EAF904E0301D90EC030A01F0DAF96C
:100F300098F81400444601280CD1686840F2145116
:100F4000884207DD642000F08DFD01287FF474AF36
:100F5000277571E705F0E2FD707018B31648183078
:100F600003F08EFF14482C3003F08AFF1248403003
:100F700003F086FF1048543003F082FF00231A4626
:100F800019461846009704F08DFF0E4801F0D2FB79
:100F900001280AD0DDD94FF00B014FF00A0000F014
:100FA00015F849E704F094FDEFE764210120F6E726
:100FB00074810020FC9800207402002000000000D2
:100FC000CDCC4C3E85010020FEE7000030B50C4C36
:100FD00023780A2B01D3002030BD0A4D627805F832
:100FE000120005EB4200521C41700A20B2FBF0F1E6
:100FF00000FB112060705B1C2370012030BD0000DD
:1010000038010020AC8100201CB50121082004F02B
:10101000BFFA4FF40060009001208DF80400002416
:101020008DF8064003218DF805108DF807006946FC
:10103000034801F0F9FB0348C0F8AC421CBD0000B6
:10104000000C02400080414200EE102AB7EE001A68
:10105000F0B5F8EE400A01EB810300265B0081EE5B
:10106000200ADFED220A234F0143354620EE200AF5
:10107000BCEEC00A10EE104A1FFA84FC1C4C01D0D2
:10108000634505D23D81FD700120C4F8AC52F0BD2E
:1010900000EE102A3989B8EE400AC1EE001A00EEBF
:1010A000101AB8EE400A01EEA00ABCEEC00A10EE1B
:1010B000101A89B23981994203D20120C4F8AC02D6
:1010C00011E0B1EB430F02D2C4F8AC520BE03D810A
:1010D000F978491CC9B2F970814204D1C4F8AC5204
:1010E000FD700120F0BD3046F0BD000000007A44E4
:1010F000008041423801002070B51B4C064604F1C7
:101100000A05A079B0B92078A0B12179012911D1BF
:10111000164AA17812F8113002EB41022B70527876
:101120006A700A22491CB1FBF2F302FB1311A17091
:10113000401E2070697828783246FFF785FF00212D
:10114000207101280BD0A079002807D06079401CBD
:10115000C0B26071B04201D36171A17170BD2970DC
:1011600069700120A071F1E738010020AC810020F6
:101170002DE9F04788B09946DDF840A0F0B3E9B317
:10118000E2B3B9F1000F53D0A0F101084E1E571E73
:1011900001F012FB0121480604F012FA00248DF838
:1011A00006408DF807408DF804708DF80840012541
:1011B0008DF805608DF809508DF802A01D4E8DF850
:1011C0000A408DF803808DF80B40ADF80090694619
:1011D000304600F0A1F98DF816408DF817408DF8D3
:1011E0001850ADF80C40ADF81040ADF80E40ADF819
:1011F0001240ADF814408DF8195000E018E003A833
:1012000000F01CF901220221304600F07DF9142083
:101210008DF81C0003208DF81D008DF81E408DF800
:101220001F5007A803F07AF9002008B0BDE8F08746
:101230000120FAE70064004000B587B06A4600214B
:10124000304800F0DDF9DDF80B000590DDF80F0007
:1012500006909DF80800C0B1042814D10198012817
:1012600011D02949C8420ED10021084605AA135CB5
:10127000401C1944C0B2C9B20828F8D3082902D1C9
:1012800022490120087207B000BD00980022A0F595
:101290008070813808D00128F5D11D4880F83420AD
:1012A00005A802F02BFBEEE71A490878C30601D423
:1012B000102008708A70BDF8140040BA00B200EE29
:1012C000100AF8EEC00A9FED140A80EE801A81ED34
:1012D000011ABDF8160040BA00B200EE900AF8EE0E
:1012E000E00A80EE801A81ED021ABDF8180040BABB
:1012F00000B200EE900AF8EEE00A80EE801A81ED6E
:10130000031AC0E70064004088A9CBEDFC980020D8
:10131000748100203C02002000007A447CB5194C06
:1013200000206D462118097E2954401CC0B20828AF
:10133000F8D3294640F2011000F054F8002021189B
:1013400091F820102954401CC0B20828F7D36946F0
:101350004FF4817000F046F80020211891F8281011
:101360002954401CC0B20828F7D3694640F2031044
:1013700000F038F80448007A012801D100F088F91B
:101380007CBD0000E8020020FC98002070B586B00B
:10139000134E019004208DF8080000208DF80900FC
:1013A00008208DF80A000868CDF80B004868CDF8D1
:1013B0000F006946304600F0ADF94FF6FF7501E0C9
:1013C000641CA4B23946304600F004FA08B9AC42B5
:1013D000F6D3AC4202D3012006B070BD0020FBE77B
:1013E0000064004070B586B0134E009000208DF868
:1013F00008008DF8090008208DF80A000868CDF86B
:101400000B004868CDF80F006946304600F082F9BD
:101410004FF6FF7501E0641CA4B23946304600F077
:10142000D9F908B9AC42F6D3AC4202D3012006B0D8
:1014300070BD0020FBE7000000640040F0B5827A38
:101440002F4D012191402A6842F001022A602C4E62
:101450001C3632688A433260294A047B294B0C329D
:10146000A4B914688C4314604488C78844EA0744CC
:10147000877A03EBC707C7F840460488878844EAA1
:101480000744877A03EBC707C7F84446047B012C5F
:1014900012D114680C431460847A026803EBC4040C
:1014A0004FEA3242C4F84026847A426803EBC40310
:1014B0004FEA3242C3F84426114AC37A121D002B68
:1014C000136806D00B4313600D4A0389143213B11D
:1014D00004E08B43F7E713688B4313600389012B08
:1014E00002D113680B431360407B012802D130689E
:1014F00008433060286820F001002860F0BD00003B
:101500000066004000600040002A426901D00A43A2
:1015100000E08A434261704710B50368002223F05F
:1015200002030360036843F0010303604FF6FF7397
:1015300000E0521C4468E40701D19A42F9D14268A4
:10154000D2073ED08A79012A02683CD022F080027C
:101550000260CA79012A026838D022F04002026093
:101560000A7A012A026834D022F0200202604A7A04
:10157000012A026830D022F0100202608A7A012A21
:1015800002682CD022F008020260CA7A012A02689E
:1015900028D022F0040202608A78CC78920742EACE
:1015A00004620C7942EA04424C79098842EA045206
:1015B000491E0A43C261016821F001010160002156
:1015C00014E0002010BD42F08002C1E742F040026A
:1015D000C5E742F02002C9E742F01002CDE742F031
:1015E0000802D1E742F00402D5E7491C4268D2075D
:1015F00001D09942F9D14068C007E2D1012010BD65
:1016000010B500EB0113D3F8B04114F004041472C8
:10161000D3F8B04133D0E4085460D3F8B04104F0BB
:1016200002045472D3F8B44104F00F049472D3F856
:10163000B441240AD474D3F8B841D472D3F8B84171
:10164000240A1473D3F8B841240C5473D3F8B84166
:10165000240E9473D3F8BC41D473D3F8BC41240A4C
:101660001474D3F8BC41240C5474D3F8BC311B0E51
:10167000937439B1016941F02001016110BD640D1D
:101680001460CAE7C16841F02001C16010BD0000CC
:101690001CB500208DF800001C48DFED1D0A90ED00
:1016A000040A20EE200ABDEEC00A10EE101A09123C
:1016B0008DF8011010EE101A8DF8021090ED050A49
:1016C00020EE200ABDEEC00A10EE101A09128DF8A5
:1016D000031010EE101A8DF8041090ED060A20EE9B
:1016E000200ABDEEC00A10EE101A09128DF805107E
:1016F00010EE101A8DF80610007A8DF80700694672
:1017000040F20510FFF76EFE1CBD00007481002042
:1017100000007A4430B50246002093685B0108D48B
:101720009068000101D5012003E09068C00044D515
:10173000022002EB0012D2F8803103F00103C2F85C
:1017400080310B7AC3B3D2F880414D681C434B7A89
:1017500043EAC5031C43C2F880418B7A03F00F03B0
:101760008B72D2F8843123F00F03C2F88431D2F89F
:1017700084318C7A2343C2F88431CB7A8C7B0D7B05
:1017800043EA04634C7B240444EA05242343C2F85F
:101790008831CB7B8C7C43EA04634C7C097C240439
:1017A00044EA01210B43C2F88C31D2F8801141F098
:1017B0000101C2F8801130BD01E00420FBE7D2F83E
:1017C00080314C7A23430C8843EA4453C2F8803179
:1017D000C3E70000002221B1012905D0022906D16A
:1017E00012E08268114801E0826811480240114904
:1017F000501A8A4214D00ADCA2B16FF0806010182F
:101800000FD002280CD10FE082680B48EEE7B0F54C
:10181000007F09D00949401803D0B0F5003F03D03C
:101820000020704702207047012070470300000429
:101830000003000800010008000003100001FFF78A
:1018400070B51D4C1D4E0025A079012804D1307AB9
:1018500010B9A57100F00CFF307A012819D194F865
:101860003400401CC0B284F83400642804D909F064
:1018700047FF652084F8340011481249C06D884242
:1018800007DA207928B11048417911B1457101205A
:10189000A0710E48018A491C89B201820A2909D91E
:1018A0000B21018240F2DC514FF47A720160C0E9F1
:1018B0000112C16070BD000074810020FC980020FE
:1018C000440500200000A04100000020D886002030
:1018D000034610B50020024603E09C5C6040521CA9
:1018E00092B28A42F9D310BD03498988C140C80722
:1018F00000D001207047000054010020174A03283F
:1019000009D01346DFED160A93ED0B0A082809D01B
:101910000A280ED015E0012913D1124901200968C7
:1019200008740EE0022901D001290AD130EE600AC4
:1019300005E0022901D0012903D130EE200A82ED11
:101940000B0A92ED0B0AB5EEC00AF1EE10FA03D2C3
:101950009FED050A82ED0B0A704700003C02002053
:1019600000004842200100200000000070B504463D
:101970000020024604EB8001401CC1F88829102891
:10198000F8D300204FF400652118401C81F81C2179
:10199000A842F9D3227062700120A070C4F8C8294F
:1019A00020764021A171627684F81C2984F81D09F3
:1019B00084F81F29010284F81E2904F11C00FEF797
:1019C00076FC294604F58E70FEF771FC122104F6B0
:1019D0002610FEF76CFC3E2104F63810FEF767FC7B
:1019E000002070BD70B586B00C46054614216846CF
:1019F000FEF75DFC00221CB918A401E0521CD2B213
:101A0000A05C08B10E2AF9D37E208DF800008DF875
:101A100001508DF802200020694604E0235C0D1877
:101A2000401CEB70C0B29042F8D311216846FFF71A
:101A30004FFF8DF811007F2013268DF812006D46A0
:101A40000024285D0BF0D6FE285D0BF0DBFE641C45
:101A5000E4B2B442F5D306B070BD0000000000004F
:101A6000704700002DE9FC5F0546DFF894820020F6
:101A70000190D8F81000A34F401CC8F810000128AE
:101A80000CD1A148006808B10CF0A0FA9F49384673
:101A900009F016FE14210120FFF798FA4FF0010B10
:101AA000F6EE000A9FED9A0AD8F81000DFF864A25B
:101AB000DFF86492994C0026B0EB450F0CD2C4EDD0
:101AC0000A0A84ED0D0A84ED100A84ED130A03F06E
:101AD000FFFF904808306DE05DD191A1384609F0D4
:101AE000EFFD94ED0B0A994910EE100A0144984855
:101AF000814201D297A149E010EE100A994988F875
:101B000006B0884205D998A1384609F0D9FD9E490A
:101B10003CE0D4ED0E0A4846F0EEE00A10EE901AD2
:101B2000814205DD99A1384609F0CAFDA7492DE09B
:101B3000D4ED110AF0EEE00A10EE901A814205DDB4
:101B4000A3A1384609F0BCFDB1491FE0D4ED140A49
:101B5000F0EEE00A10EE901A494505DDADA13846D9
:101B600009F0AEFDBB4911E0B0EEC00A10EE100A5C
:101B7000B94988420DDAB948816841F2883081421A
:101B800007DDB7A1384609F09BFDC349384609F087
:101B900097FDC2A1CCE2B0EB850F0FD284ED0A0A0B
:101BA000C4ED0D0A84ED100A84ED130A03F090FFD2
:101BB00058480C3006605748001D73E05ED1C3A141
:101BC000384609F07DFD94ED0E0A604910EE100ACA
:101BD00001445F48814201D2C7A14AE010EE100AD9
:101BE000604988F806B0884205D9C7A1384609F08F
:101BF00067FDCD493DE0D4ED0B0A4846F0EEE00A22
:101C000010EE901A814205DDC8A1384609F058FD52
:101C10006E492EE0D4ED110AF0EEE00A10EE901AB3
:101C2000814205DDD1A1384609F04AFDDF4920E0B7
:101C3000D4ED140AF0EEE00A10EE901A494505DDE5
:101C4000DBA1384609F03CFDE94912E0B0EEC00ADC
:101C500010EE100A804988420EDA804814308168FC
:101C600041F28830814207DDE2A1384609F028FDC3
:101C7000EE49384609F024FDEDA159E205EB450196
:101C80004546B0EB410F11D284ED0A0A84ED0D0AEE
:101C9000C4ED100A84ED130A03F01AFF1D480C303E
:101CA0000660001F0660CAF8006076E225D1ECA14C
:101CB000384609F005FD94ED110A244910EE100A8A
:101CC00001442348814201D2F0A12DE210EE100A16
:101CD000244985F806B0884205D9F0A1384609F0B4
:101CE000EFFCF64920E2D4ED0B0A4846F0EEE00A9C
:101CF00010EE901A814201DDE2E12CE2E6E1000003
:101D000000000020001001401C00002078050108A0
:101D10000000000034040140CDCC4C3E44050020BE
:101D20003D3D3D3D3D3D3D3D3D3D3D3D3D3D3D3DE3
:101D30003D20B5E7BBFA41203D3D3D3D3D3D3D3DAC
:101D40003D3D3D3D3D3D3D3D0D0A0000323333C13B
:101D5000CCCC4C00B5E7BBFA41D5FDB3A32E0D0AA0
:101D600000000000CDCC4CBEBCECB2E2B5BD41B52C
:101D7000E7BBFAB1E0C2EBC6F7BCABD0D4B4EDCE52
:101D8000F32E0D0A00000000C8090108C7FDB6AF18
:101D9000B5E7BBFA41CAB12CBCECB2E2B5BDB1E0CB
:101DA000C2EBC6F7BDD3BFDA42B5C4D0C5BAC52EA3
:101DB0000D0AD7D4BCECCAB1B5E7BBFA41CAC7B764
:101DC000F1D7AAB6AF3F0D0A00000000C805010810
:101DD000C7FDB6AFB5E7BBFA41CAB12CBCECB2E265
:101DE000B5BDB1E0C2EBC6F7BDD3BFDA43B5C4D0D1
:101DF000C5BAC52E0D0AD7D4BCECCAB1B5E7BBFA3B
:101E000041CAC7B7F1D7AAB6AF3F0D0A000000001C
:101E100068060108C7FDB6AFB5E7BBFA41CAB12CE9
:101E2000BCECB2E2B5BDB1E0C2EBC6F7BDD3BFDAE0
:101E300044B5C4D0C5BAC52E0D0AD7D4BCECCAB1BE
:101E4000B5E7BBFA41CAC7B7F1D7AAB6AF3F0D0A8B
:101E50000000000058070108CDCC4C3D8C0200204A
:101E6000C7FDB6AFB5E7BBFA41CAB12CCEB4BCECE6
:101E7000B2E2B5BDB1E0C2EBC6F7D0C5BAC52E0D12
:101E80000AD7D4BCECCAB1B5E7BBFA41CAC7B7F1AF
:101E9000D7AAB6AF3F0D0A00C80801083D3D3D3D39
:101EA0003D3D3D3D3D3D3D3D3D3D3D3D3D20B5E75D
:101EB000BBFA41203D3D3D3D3D3D3D3D3D3D3D3D30
:101EC0003D3D3D3D0D0A0D0A000000003D3D3D3DFC
:101ED0003D3D3D3D3D3D3D3D3D3D3D3D3D20B5E72D
:101EE000BBFA42203D3D3D3D3D3D3D3D3D3D3D3DFF
:101EF0003D3D3D3D0D0A0000B5E7BBFA42D5FDB3BF
:101F0000A32E0D0A00000000BCECB2E2B5BD42B544
:101F1000E7BBFAB1E0C2EBC6F7BCABD0D4B4EDCEB0
:101F2000F32E0D0A000000002C0A0108C7FDB6AF11
:101F3000B5E7BBFA42CAB12CBCECB2E2B5BDB1E028
:101F4000C2EBC6F7BDD3BFDA41B5C4D0C5BAC52E02
:101F50000D0AD7D4BCECCAB1B5E7BBFA42CAC7B7C1
:101F6000F1D7AAB6AF3F0D0A00000000C7FDB6AF1B
:101F7000B5E7BBFA42CAB12CBCECB2E2B5BDB1E0E8
:101F8000C2EBC6F7BDD3BFDA43B5C4D0C5BAC52EC0
:101F90000D0AD7D4BCECCAB1B5E7BBFA42CAC7B781
:101FA000F1D7AAB6AF3F0D0A00000000E006010815
:101FB000C7FDB6AFB5E7BBFA42CAB12CBCECB2E282
:101FC000B5BDB1E0C2EBC6F7BDD3BFDA44B5C4D0EE
:101FD000C5BAC52E0D0AD7D4BCECCAB1B5E7BBFA59
:101FE00042CAC7B7F1D7AAB6AF3F0D0A000000003A
:101FF000D0070108C7FDB6AFB5E7BBFA42CAB12C9E
:10200000CEB4BCECB2E2B5BDB1E0C2EBC6F7D0C510
:10201000BAC52E0D0AD7D4BCECCAB1B5E7BBFA429B
:10202000CAC7B7F1D7AAB6AF3F0D0A0048090108E1
:102030003D3D3D3D3D3D3D3D3D3D3D3D3D3D3D3DD0
:102040003D20B5E7BBFA42203D3D3D3D3D3D3D3D98
:102050003D3D3D3D3D3D3D3D0D0A0D0A000000006A
:102060003D3D3D3D3D3D3D3D3D3D3D3D3D3D3D3DA0
:102070003D20B5E7BBFA43203D3D3D3D3D3D3D3D67
:102080003D3D3D3D3D3D3D3D0D0A0000B5E7BBFA00
:1020900043D5FDB3A32E0D0A00000000BCECB2E254
:1020A000B5BD43B5E7BBFAB1E0C2EBC6F7BCABD0F8
:1020B000D4B4EDCEF32E0D0A00000000900A010802
:1020C00037A1384609F0FCFA45492DE0D4ED0E0A57
:1020D000F0EEE00A10EE901A814205DD41A138468B
:1020E00009F0EEFA4F491FE0D4ED140AF0EEE00AD1
:1020F00010EE901A494505DD4BA1384609F0E0FA8B
:10210000594911E0B0EEC00A10EE100A5749884252
:102110000DDA5748816841F28830814207DD55A1C8
:10212000384609F0CDFA6149384609F0C9FA60A18C
:10213000384609F0C5FA4E48283802F0A1FE4C484E
:10214000143802F09DFE4A4802F09AFE48481430C6
:1021500002F096FE21E00120019084ED0A0A84ED50
:102160000D0A002384ED100A84ED130A1A4619465D
:102170001846009603F096FE57A1384609F0A0FADB
:1021800014210120FEF722FFA87920B954480068E5
:1021900008B10BF05DFE2E61AE710198BDE8FC9FA9
:1021A000C7FDB6AFB5E7BBFA43CAB12CBCECB2E28F
:1021B000B5BDB1E0C2EBC6F7BDD3BFDA41B5C4D0FF
:1021C000C5BAC52E0D0AD7D4BCECCAB1B5E7BBFA67
:1021D00043CAC7B7F1D7AAB6AF3F0D0A0000000047
:1021E00068060108C7FDB6AFB5E7BBFA43CAB12C14
:1021F000BCECB2E2B5BDB1E0C2EBC6F7BDD3BFDA0D
:1022000042B5C4D0C5BAC52E0D0AD7D4BCECCAB1EC
:10221000B5E7BBFA43CAC7B7F1D7AAB6AF3F0D0AB5
:1022200000000000E0060108C7FDB6AFB5E7BBFA45
:1022300043CAB12CBCECB2E2B5BDB1E0C2EBC6F70B
:10224000BDD3BFDA44B5C4D0C5BAC52E0D0AD7D4A4
:10225000BCECCAB1B5E7BBFA43CAC7B7F1D7AAB657
:10226000AF3F0D0A0000000018060108CDCC4C3D20
:10227000B4020020C7FDB6AFB5E7BBFA43CAB12C24
:10228000CEB4BCECB2E2B5BDB1E0C2EBC6F7D0C58E
:10229000BAC52E0D0AD7D4BCECCAB1B5E7BBFA4318
:1022A000CAC7B7F1D7AAB6AF3F0D0A004808010860
:1022B0003D3D3D3D3D3D3D3D3D3D3D3D3D3D3D3D4E
:1022C0003D20B5E7BBFA43203D3D3D3D3D3D3D3D15
:1022D0003D3D3D3D3D3D3D3D0D0A0D0A00000000E8
:1022E0001C00002010B5444CB0EE412A2DED028BAD
:1022F000F0EE602A94ED0C1AF1EE410A0BF062FA4E
:1023000094ED0C1AF0EE401AB0EE620AF1EE410ABA
:102310000BF058FA94ED0C1AF0EE408AB0EE420A37
:10232000F1EE410A0BF04EFA3448B0EE408A807963
:10233000E8B3C4ED041AC4ED058A84ED068A04F1FD
:10234000100090EC030A01F089FD0121606B0BF095
:1023500017FFB0EE408A0021606B0BF011FF94ED87
:102360000C1A2748F0EE401AF1EE410A90ED0A0AE5
:102370000BF028FA80ED0A0A94ED0C1A90ED0D0A84
:10238000F1EE410A0BF01EFA80ED0D0A94ED0C1AE5
:1023900090ED100AF1EE410A0BF014FAD0ED0D0A9F
:1023A00020EE210A60EE880AC0ED0D0A00E004E08C
:1023B00080ED100ABDEC028B10BD94ED071A94ED70
:1023C000040AF0EE610A07F07FF984ED040A94ED47
:1023D000071A94ED050AF0EE680A07F075F984ED26
:1023E000050A94ED071A94ED060AF0EE480A07F084
:1023F0006BF984ED060AA2E73C02002074810020FC
:10240000440500201CB50121102003F0C1F8102064
:10241000009000208DF8040003208DF805000120B5
:102420008DF807006946024800F0FEF91CBD000067
:102430000010024008B50121084603F0C1F801214F
:10244000084603F0BDF80121022003F0B9F84FF06F
:102450008040C11300900823024A034800F054F85A
:1024600008BD0000000402400000024008B5012140
:10247000022003F0A5F80121084603F0A1F801218C
:10248000084603F09DF80448009004488023024663
:10249000402100F039F808BD00040040000002406F
:1024A00008B50121042003F08BF80121022003F07C
:1024B00087F80121022003F083F8044800900448C3
:1024C00080230246402100F01FF808BD00080040AC
:1024D0000004024008B50121082003F071F8012131
:1024E000084603F06DF80121084603F069F8044836
:1024F0000090044802230246012100F005F808BDBF
:10250000000C0040000002402DE9FF4F89B04FF061
:1025100003098DF805904FF0020A8DF804A04FF0E2
:1025200001080F4600918DF806801E469346169CC2
:102530008DF807806946099800F076F98DF80590C6
:102540008DF804A08DF8068000968DF80780694606
:10255000584600F069F93A4884420DD0B4F1804FF2
:102560000AD03848844205D03748844202D03748E0
:10257000844203D1022519E0012517E03448844242
:1025800008D03448844205D03348844202D03348CE
:10259000844201D1032509E03148844205D0314805
:1025A000844202D03048844200D10925002127FA14
:1025B00001F0C00703D1491CC9B21029F7D32A463C
:1025C000099800F0EBF9002126FA01F0C00703D1C9
:1025D000491CC9B21029F7D32A46584600F0DEF943
:1025E00002A804F05FF900254FF6FF70ADF808501F
:1025F0000390ADF81050ADF80A5002A9204604F03F
:1026000013F900231A460321204603F026FF05A8EC
:1026100003F0A6FFADF81C5005A9204603F04AFFC1
:102620000121204603F0FEFE0021204604F0D2F8EE
:102630000121204603F0FCFE0DB0BDE8F08F000044
:10264000000001400004004000080040000C004071
:1026500000040140004001400044014000480140A6
:1026600000180040001C00400020004072B6FEE749
:102670001CB505A0D0E90010CDE90010694604485A
:10268000FEF784FE1CBD00000101010101010101F2
:102690007856341210B5002003F0A0F8214C411CEC
:1026A00000D0E060012003F099F8411C00D0606088
:1026B000022003F093F8411C00D0A060032003F037
:1026C0008DF8194C411C00D06063042003F086F89B
:1026D000411C00D0E06294ED0B0AB5EEC00AF1EEA9
:1026E00010FA04D310EE100A1049884203DD9FED62
:1026F000100A84ED0B0A052003F070F8411C4FF01E
:10270000FF3402D0214603F03BFC062003F066F8BC
:102710000146401C04D02046BDE8104003F030BC08
:1027200010BD0000648100203C02002000401C46D7
:102730000000FA4310B50178002488B0012920D1A7
:10274000002101700BF0ACF81C216846FDF7AFFDCD
:102750000D48C168009141680191806802900B4862
:10276000416B0391C06A04900948016E0591406E67
:1027700006900721684607F00DFA401CC4B20BF022
:10278000CBF808B0204610BD648100203C02002038
:10279000440500201CB50022009102218DF8041090
:1027A0008DF8062003228DF805208DF80710694664
:1027B00000F03AF81CBD00002DE9FC410121082081
:1027C00002F0E6FE0121082002F0E2FE02248DF86C
:1027D000044000268DF806600327DFF848808DF856
:1027E0000570012500948DF807506946404600F0B9
:1027F0001BF88DF804408DF806608DF80570009583
:102800008DF807506946404600F00EF80922012174
:10281000404600F0C3F809220021404600F0BEF80F
:10282000BDE8FC81000C0240F0B5002201274FF00A
:10283000030C0B6807FA02F52B40AB422CD106685B
:1028400053000CFA03F4A64306600E79D0F800E0BA
:102850009E4046EA0E0606600E79012E01D0022E39
:1028600012D18668A64386604E79D0F808E09E4073
:1028700046EA0E0686604668AE43466045688E7935
:102880009640B6B235434560C568A543C560CC796E
:102890009C40C3681C43C460521C102AC9D3F0BDBD
:1028A0001CB50022009101218DF804108DF806203E
:1028B0008DF805208DF807106946FFF7B5FF1CBDA0
:1028C000FEB500250C4606468DF808500AE09DF836
:1028D000080024FA00F0C00708D19DF80800401C49
:1028E0008DF808009DF808001028F0D3204900203A
:1028F0008A420DD0B2F1804F0AD01E498A4205D0DB
:102900001D498A4202D01D498A4203D1022019E0A2
:10291000012017E01A498A4208D01A498A4205D094
:1029200019498A4202D019498A4201D1032009E09B
:1029300017498A4205D017498A4202D016498A426D
:1029400000D109209DF808100246304600F026F814
:1029500002208DF804008DF8065001218DF8071033
:102960008DF80500009469463046FFF75DFFFEBD17
:10297000000001400004004000080040000C00403E
:102980000004014000400140004401400048014073
:1029900000180040001C0040002000404B07DB0EE8
:1029A0009A40C90810B500EB8100016A0F249C40D1
:1029B000A1430162016A1143016210BD01837047A6
:1029C00030B40B46002123FA01F4E40703D1491C7B
:1029D000C9B21029F7D3174CA2420DD0B2F1804FE3
:1029E0000AD0154CA24205D0144CA24202D0144C7D
:1029F000A24203D1022319E0012317E0114CA242A5
:102A000008D0114CA24205D0104CA24202D0104C6A
:102A1000A24201D1032309E00E4CA24205D00E4C84
:102A2000A24202D00D4CA24200D1092330BC1A466A
:102A3000FFF7B4BF00000140000400400008004060
:102A4000000C0040000401400040014000440140EF
:102A50000048014000180040001C004000200040D9
:102A600070B5D04000F001000C460870097B0026CC
:102A7000012505293AD2DFE801F00337091D3300AB
:102A800088B30BF095FF606002200AE00BF090FF26
:102A90006168401AA060217829B1B0F57A7F25D904
:102AA0000420207322E032281FD30BF081FF6060E6
:102AB0000320F6E70BF07CFF61684FF4C872401A00
:102AC000A0602178012904D090420FD32573012002
:102AD00070BD9042FAD2322808D92573022070BD09
:102AE0002573032070BD01E000B926730020F9E7CB
:102AF00031B507239DF800100122094C2046FEF74E
:102B00004DF82046FEF784F802212046FEF719F81A
:102B10000028F9D02046BDE83840FEF70FB8000085
:102B2000002001402DE9F04100250E4607462C46C5
:102B300005E03846FFF7DCFF641C0544E4B2B4420C
:102B4000F7D3B5FBF6F080B2BDE8F08132483049EA
:102B5000DFED2E1A90ED0B1A4A78DFED2E0AB1EE5A
:102B6000410A092A24D2DFE802F02305080B1013DA
:102B7000181B200080ED011A0CE080ED011A01E025
:102B8000C0ED010A80ED020A25E080ED010AF9E7B7
:102B900080ED010AC0ED020A1DE080ED010A01E0AE
:102BA000C0ED010A80ED021A15E080ED011AF9E787
:102BB000C0ED010AC0ED020AC0ED030A097901293E
:102BC00002D0022903D006E0C0ED031A03E09FED16
:102BD000130A80ED030AD0ED010ADFED111A80EE31
:102BE000A10A80ED010A90ED022AC2EE210A9FEDB2
:102BF0000D2AC1EE021AC0ED020A90ED031A21EE71
:102C0000811A80ED031AFFF76DBB0000DB0F493F0F
:102C100083010020000000003C020020DB0F49BFC0
:102C200000007A440000FA432DE9F04100202DED28
:102C3000028B02F0B3FD0646012002F0AFFD05460F
:102C4000022002F0ABFD284F04460121786B0BF007
:102C500097FAB0EE408A0021786B0BF091FA07F1F9
:102C60003801487840B94868801B48608868401B34
:102C70008860C868001BC8606FF0630016FB00F036
:102C800000EE900A19496FF06300B8EEE01AD1ED3A
:102C9000040AC1EE201A91ED021A61EE811AC1ED0B
:102CA0000B1A15FB00F001EE900A6FF06300B8EE0E
:102CB000E12AC2EE201A61EE811A81EE882A81EDA6
:102CC0000E2A14FB00F001EE900AF8EEE11A81EEF4
:102CD000A02A62EE010A80EE801A81ED111ABDEC85
:102CE000028BBDE8F08100003C020020440500207A
:102CF00010B50820FFF7FCFEFDF792FC9FED0B1BC3
:102D000053EC112BFDF79AFB9FED0A1B53EC112B93
:102D1000FDF794FB9FED091B53EC112BFDF78EFB88
:102D2000FDF7B6FC00EE100A10BD00006666666690
:102D300066660A4000000000000026400000000017
:102D40000000303FD0F8DC0305F09DB9D0F8DC037B
:102D500005F0AFB9006805F08DBE006805F08EBEC5
:102D6000C1EB011100EB8100002200F81A2F427024
:102D7000C272827210467047C1EB011100EB8100F4
:102D800090F84C007047C1EB011100EB8100806BA3
:102D9000704710B5044690F8D403012809D00120EB
:102DA00084F8D403206805F074FE002084F8D4036E
:102DB00010BD022010BD2DE9FF4F83B00546DDE9AF
:102DC000117690F8D403DDF8408093468A460128B6
:102DD0001CD0CAEB0A10012305EB800485F8D4331C
:102DE0004FF0000984F819900698207584F815A012
:102DF00084F826700BF07F00A07551462846FFF737
:102E0000AFFF5FEA0B6005D5E37505E0022007B070
:102E1000BDE8F08F84F81790286805F02FFE012F89
:102E200006D1B8F1010F03D110B9BC2E00D9BC26D0
:102E300084F81880B0B22085CDF80080CDE901700B
:102E400028685A465146069B05F08EFE85F8D493B5
:102E5000DDE7D0F8DC0305F0A3B92DE9F0030E4659
:102E6000DDE906C9DDE90874C1EB061100EB81015B
:102E70000225CA7581F82630BCF1000F0AD081F80E
:102E80002A50002463B1012B31D0022B28D0032B10
:102E900016D125E04FF0030881F82A804C76F0E740
:102EA000BCF1010F0CD11AB18A7E012A19D007E0BA
:102EB000D7B9012281F83D2000E0C2B181F82A5043
:102EC000C1F82C904F6381F84C408C634E7581F8AB
:102ED0004D4082790068BDE8F003143105F0D4BE9E
:102EE00012B191F83C20E8E791F83D20E5E781F840
:102EF0002A40E5E72DE9F04104460068064605F062
:102F0000C4FD012876D1206806F078F8002871D039
:102F1000206806F073F8800203D521684FF4001092
:102F20004861206806F06AF8C00203D521684FF4B2
:102F300080104861206806F061F8400103D52168DF
:102F40004FF080604861206806F058F8800702D58D
:102F5000216802204861206806F050F8800018D5EA
:102F600021684FF000504861D6F84004C00710D1E6
:102F70001021304605F03EFD304605F01FFD607A19
:102F8000022803D10121206806F014F82046FFF73B
:102F9000DDFE206806F032F8C00102D5204600F0C0
:102FA0001FFC206806F02AF8000705D5204600F02F
:102FB000BAF8216808204861206806F01FF88001EF
:102FC00023D5206805F05CFE074600254FF0010878
:102FD00014E005F00F0108FA01F038420DD006EBBD
:102FE0004510D0F80005E9B20004204603D500F0F2
:102FF000C6F802E01CE000F080FA6D1C6079A8427F
:10300000E7D821684FF000704861206805F0F6FFAE
:10301000C043C0060CD42068816921F01001816191
:10302000204600F027FC2068816941F01001816191
:10303000BDE8F081F8B5040005D094F8D503256803
:10304000002610B106E00120F8BD84F8D4632046C4
:1030500000F028F8032084F8D503B5F1A04F00D183
:10306000A671206805F076FC207C8DF8000094E8BD
:103070000F0005F00FFC022560B90121206805F062
:10308000F9FF38B9207C8DF8000094E80F0005F0B6
:1030900029FF10B184F8D553D5E7012084F8D50372
:1030A0000020F8BD3EB50121084602F071FA012169
:1030B000802002F079FA4FF4C050009002208DF881
:1030C000040003208DF80500104D00248DF8074002
:1030D00069462846FFF7A8FB0A220B212846FFF77E
:1030E0005DFC0A220C212846FFF758FC43208DF88E
:1030F000080005208DF809008DF80A4001208DF8A0
:103100000B0002A801F00AFA3EBD000000000240D8
:10311000D0F8DC0305F061B8D0F8DC0305F061B845
:10312000006805F08EBFD0F8DC0305F002B810B5DA
:10313000044690F8D40301280DD0012084F8D4036C
:103140000121206805F01EFC206805F031FC0020FC
:1031500084F8D40310BD022010BD10B5044690F8C9
:10316000D403012809D0012084F8D403206805F095
:10317000AFFF002084F8D40310BD022010BD2DE95C
:10318000F05F054600680E46074605F02FFFC6EBC8
:10319000061140074FF007084FF0040905EB8104C2
:1031A00001D5484633E03146286805F01FFFC005C9
:1031B0004FF0080A08D507EB46114FF48070C1F8AC
:1031C000080584F84DA028E03146286805F00EFF78
:1031D000000705D507EB4611C1F808A506200CE04D
:1031E0003146286805F002FF400509D507EB461176
:1031F0004FF48060C1F80805092084F84D000CE008
:103200003146286805F0F2FE00060AD5802007EB5B
:103210004611C1F8080584F84D803146286805F04C
:1032200038FC3146286805F0E1FE80052868314603
:1032300004D505F02EFC4FF4007059E105F0D6FEE0
:10324000C0074FF0200B4FF0010A4FF000084ED09E
:1032500007EB4617C7F808B5E07E012807D184F8C8
:103260001B80D7F8040520F48030C7F80405A8793E
:1032700030B1206BD7F81015C1F31201401AA063CA
:1032800084F84DA0C4F844805246C7F808A594F8C5
:10329000260030B1022804D003280AD0012808D023
:1032A00013E03146286805F0F4FB1020C7F8080544
:1032B0000BE0D7F8000540F00050C7F8000584F88F
:1032C0004C2031462846FFF7C4FDA879012807D1D4
:1032D000208DA16B0144491EB1FBF0F0C00704D062
:1032E00014F83C0F80F001002070BDE8F09F3146DB
:1032F000286805F07BFE80060CD507EB4611C1F867
:1033000008B5A07E0128F0D184F81BA0032084F822
:103310004D00B4E03146286805F068FE80074FF0A4
:10332000050B75D507EB46100222C0F8082594F866
:103330004D10012916D0062919D007291CD00929BA
:103340001AD0052933D0032963D004297DD0082958
:103350007ED00229C9D094F84C2031462846FFF788
:1033600078FDC2E784F84D2084F84CA0F3E784F898
:103370004D2084F84CB0EEE784F84D20616C491C78
:103380006164022910D9C4F84480A27E4146012A12
:1033900007D1E1762177D0F8041521F48031C0F807
:1033A000041584F84C90D6E784F84C2022E084F889
:1033B0004D20E17E0129CED194F826100329F3D1C6
:1033C000A16C491CA164022911D9C4F8488084F871
:1033D0001B80616C032901D284F81CA0D0F804156D
:1033E00021F48031C0F8041584F84C9002E084F890
:1033F0004C20B0E794F8261009B10229ABD1D0F8DF
:10340000001521F0804141F00041C0F80015A2E70D
:1034100024E084F84D20E17E01299CD184F84C20E1
:10342000D0F8041541F48031C0F80415D0F80C151B
:1034300041F04001C0F80C15D0F80C1521F0200126
:10344000C0F80C15D6E700E002E084F84D20ABE7A9
:1034500084F84D20606C401C6064A2E73146286807
:1034600005F0C4FD400610D507EB46114020C1F819
:10347000080584F84DB0A07E08B9C4F844803146F0
:103480002868BDE8F05F05F004BB3146286805F008
:10349000ADFDC0067FF565AF94F82600032803D084
:1034A00028B1022803D00FE0C4F8448006E0C4F835
:1034B0004480A87910B1E07E012818D184F84D909D
:1034C0003146286805F0E5FAE07E01280FD107EBC8
:1034D000461084F81B80D0F8041521F48031C0F820
:1034E0000415D0F80C1541F02001C0F80C1510207F
:1034F00007EB4611C1F80805F7E62DE9F05F054630
:1035000000680F46064605F071FDC7EB071140073E
:103510004FF0040A05EB810405D506EB4711C1F80D
:1035200008A5072089E03946286805F05FFD800678
:103530004FF000084FF001094FF0020B28D506EBC1
:1035400047112020C1F80805607E0326012809D113
:1035500084F8198084F84CB084F84D6039462868A6
:1035600005F097FAA07E012810D1E07E00280DD149
:1035700094F82600012801D084F81B9084F84D604F
:103580003946286805F085FAC4F84480BDE8F09F04
:103590003946286805F02AFD800506D506EB471157
:1035A0004FF40070C1F8080549E03946286805F075
:1035B0001DFDC00720D0C4F844803946286805F0B6
:1035C00015FD400606D506EB471184F819904020FA
:1035D000C1F80805E07E48B106EB471084F81B806F
:1035E000D0F8041521F48031C0F8041506EB47111A
:1035F0004846C1F8089520E03946286805F0F6FCF1
:1036000040060ED5052084F84D00A07E08B984F848
:103610001990C4F844803946286805F03AFA4020E9
:1036200028E03946286805F0E1FC00070DD506EBD7
:1036300047110820C1F80805062084F84D003946D6
:103640002868BDE8F05F05F024BA3946286805F01F
:10365000CDFCC00613D5C4F8448084F84DA0607E2C
:1036600018B9207E08B984F819903946286805F001
:1036700010FA102006EB4711C1F8080586E7394615
:10368000286805F0B3FC00061CD5A87970B1606C01
:10369000401C6064022811D9C4F84480524684F862
:1036A0004CA039462846FFF7D4FB09E0072084F8F0
:1036B0004D003946286805F0ECF901E084F84CB07B
:1036C0008020D7E73946286805F090FC400509D5E9
:1036D000092084F84D003946286805F0DAF94FF4DE
:1036E0008060C7E73946286805F080FC8007C5D5AB
:1036F00006EB47115A46C1F808B594F84D00012869
:1037000017D003283AD0042840D005284ED00628E8
:103710004FD0072801D00928B0D184F84D20606C23
:10372000401C606402284AD9C4F8448084F84CA044
:103730004FE084F84D2084F84C9094F8260002283D
:1037400001D0032845D1A87928B994F83D0080F02C
:10375000010084F83D00A87901283AD1606B20B3BC
:10376000218D0844401EB0FBF1F0C00731D094F821
:103770003D0080F0010084F83D002AE084F84D20EF
:10378000E07E012825D184F84C2022E084F84D20E9
:1037900084F84C20E07E01281BD184F81B80D1F8EE
:1037A000040520F48030C1F8040512E084F84D20AF
:1037B000E9E784F84D20052084F84C0009E084F8FE
:1037C0004C20D1F8000520F0804040F00040C1F8C6
:1037D000000594F84C2039462846FFF73AFBD5E619
:1037E0007CB504680546D4F840040190D4F8400440
:1037F00020F02E0000900198800709D50198C0079D
:1038000002D02846FFF79EFA009840F00200009090
:103810000198000724D5009840F008000090019816
:1038200040071AD5687A022803D0E87901280CD01D
:103830000FE00198C0F341400228286803D001211D
:1038400005F0B8FB05E00221FAE74EF66020C4F867
:1038500004042846FFF760FC02E02846FFF758FC06
:1038600001988006009802D540F020000090C4F82E
:1038700040047CBD2DE9F041024600680746016A1C
:10388000C1F3434301F00F06C1F30A15022B2ED1F9
:10389000002D2CD0C6EB061102EB8104E16A002951
:1038A00025D0A26B636B2A449A4222D82A4605F09F
:1038B000A9FBE06A2844E062A06B2844A06307EB00
:1038C0004610D0F81015228DC1F3C941AA420ED17D
:1038D00000290CD0D0F8001521F0804141F00041C2
:1038E000C0F8001514F83C0F80F001002070BDE80E
:1038F000F081042084F84C00F9E7000070B54178AD
:103900000278DFED2A0A01EB022109B200EE101A5B
:103910002749B8EEC00A80EE201A9FED260A81EDF5
:10392000071A81ED080A4279037902EB032212B2E9
:1039300001EE102AB8EEC11AC1EE201AC1ED091A23
:10394000827902F00105CD718279C2F340160E70C2
:103950008279C2F300134B7082793344C2F3C004FE
:10396000CC708279C2F380028A7022449A180A715C
:1039700000D01DB181ED070A81ED090AC0798028C8
:1039800009D9C0F58070A0EB0010400000EE100ACD
:10399000B8EEC00A06E0C0EB0010400000EE100ACE
:1039A000B8EE400A81ED030A70BD000000007A44C1
:1039B0007481002000000000FEE7000070B50D4C8F
:1039C0000025C4F8A4520C48016821F4403101607C
:1039D000016841F480310160C4F8A052012004F56F
:1039E000287408F021F80120606008F01DF8656077
:1039F00070BD000000804042000402402DE9FC41FF
:103A00000121022001F0C4FD0121022001F0C0FDCE
:103A100001248DF8044000254FF400708DF8065005
:103A200003260F4F00908DF805608DF8074069461A
:103A30003846FEF7F9FE8DF8044020028DF8065056
:103A400000908DF805608DF8074069463846FEF70E
:103A5000EBFE0448C0F8A442C0F8A042BDE8FC81D7
:103A6000000402400080404270B50D4C0026C4F8AE
:103A7000A4620C48016821F440310160016841F4FE
:103A8000803101600125C4F8A052284604F528744D
:103A900007F0CAFF6560012007F0C6FF666070BDD1
:103AA00000804042000402402DE9F047814618485A
:103AB0000025016821F44031016001680160154E64
:103AC0002C462F464FF00108C6F8A472012007F0DB
:103AD000ABFFC6F8A4826806D6F82012000E11B11A
:103AE00040F0010501E020F00105012007F09CFFF6
:103AF000641CE4B2082CE7D3B9F1000F04D0FFF73F
:103B0000B3FF2846BDE8F087FFF758FFF9E700004C
:103B1000000402400080404270B50D46044600F0AB
:103B20001BF8204600F0B0F800F05EF8284600F0E0
:103B3000ABF800F059F800F00FF844F0010000F085
:103B4000A3F800F051F80120FFF7AEFF044600F0A3
:103B50002BF8204670BD000070B51148016821F4B3
:103B600040310160016841F4803101600D4C012059
:103B7000C4F8A002D4F8201200290FD0C4F8A4027F
:103B800007F052FF0025C4F8A052D4F82002002804
:103B900004D1012007F048FFC4F8A45270BD000012
:103BA00000040240008040420D4810B5016821F435
:103BB00040310160016841F480310160094C00200E
:103BC000C4F8A402C4F8A002012004F5287407F088
:103BD0002BFF012060602060BDE8104007F024BF8B
:103BE000000402400080404270B512480024016881
:103BF00021F440310160016801600F4D0126C5F8D4
:103C0000A062304607F010FFC5F8A46207E0641C0C
:103C1000E4B2322C03D9FFF7C7FF002070BD0120AA
:103C200007F002FFD5F820020028F0D1C5F8A40261
:103C3000012070BD00040240008040422DE9F041A7
:103C40001D4614460F468046069EFFF765FF621C20
:103C5000FF21C4F1080301FA02F22B445B1ED94094
:103C60000A43C5F108018E40D2B2F1B2C4F1070394
:103C7000D940104040EA01023946404600F034F88D
:103C80000120BDE8F08100002DE9F041054614480F
:103C9000016821F440310160016841F48031016024
:103CA000104E0027C6F8A4723C464FF00108E80900
:103CB000C6F8A0026806050E012007F0B5FEC6F89A
:103CC000A482012007F0B0FEC6F8A472012007F01C
:103CD000ABFE641CE4B2082CE9D3BDE8F08100001F
:103CE000000402400080404270B515460E4604466E
:103CF000FFF732FF2046FFF7C7FFFFF775FF30469B
:103D0000FFF7C2FFFFF770FF2846FFF7BDFFFFF781
:103D10006BFFFFF749FF012070BD00000F4820B581
:103D2000811C021D07F018FF0D484068B0F57A7F2E
:103D300012DB0A491E39CA8B8A810B8CCB81488CD5
:103D400008820D88521BCA834A889A1A0A848A8874
:103D5000801A00F580404884204620BD460300209C
:103D6000FC9800200E4820B5811C021D07F064FF5E
:103D70000C484068B0F57A7F10DB094918390A8B86
:103D80004A824B8B8B82888BC882CD88521B0A83D8
:103D90000A899A1A4A834A89801A8883204620BD54
:103DA00040030020FC9800200021D020FFF7B4BE83
:103DB00008B507F0B7FE0F4F0D4C4FF47A7507F1B9
:103DC000180807F11E0600900A21684609F0E4FE73
:103DD0006068A84207DA4146B81D00F00DF8314688
:103DE000044800F009F8FFF799FFFFF7BBFFEBE786
:103DF000FC980020280300200A8802804A8842801C
:103E000089888180704730EEC00A44F2A01280EDAC
:103E1000000AD0ED010A30EE601AD0ED030AF8EE88
:103E2000E00A61EE200A90ED041AB8EEC11A41EEE4
:103E3000000A90ED021AB8EEC11A70EE810AFDEE8A
:103E4000E00A10EE901A8160914202DC52429142E7
:103E500000DA826080ED010A806870470E48B0EE9B
:103E6000602AD0ED061A01EE812A80ED0A2AD0EDF3
:103E7000072A90ED082A22EEC03A22EE800A02EECE
:103E8000603A02EE600A01EE813A01EE810A80EDAD
:103E90000D3A80ED100A7047440500201CB5012141
:103EA000042001F075FB2020009000208DF8040014
:103EB00003208DF8050001208DF8070069460248AF
:103EC000FEF7B2FC1CBD00000008024000EE100A24
:103ED000B7EE001A70B5F8EE400A3948394D0022A5
:103EE00081EE200ADFED350A437820EE200A4BB13F
:103EF000027042808280C2800281D5F81432012B88
:103F000000D14270D5F81432012463B9437853B913
:103F10000470C3885B1C9BB2C3808B4203D9C280F0
:103F200083885B1C8380DFED280A868880EE801AF8
:103F3000FCEEC10A10EE903A9BB2B34202D244703A
:103F4000032070BD0378B3B3D5F81432012B09D127
:103F500003895B1C9BB203818B4203D90281418898
:103F6000491C4180DFED190A80EE801AFCEEC10A7F
:103F700010EE901ADFED160A8AB241888A420ED2FC
:103F800080EE801ABCEEC11A11EE102A92B28A425B
:103F900005D9D5F8141271B94470022070BD80EEB5
:103FA000801ABCEEC10A10EE102A92B28A4203D2E5
:103FB0004470012070BDFFE70020FBE700007A4459
:103FC00044010020000041420000FA430000484242
:103FD0000000964300221249012370B101280FD03E
:103FE00002280FD0032811D0042811D0052813D09F
:103FF00006280AD10A704A7006E00A704B7009E080
:104000000A7000E00B704B708A7070470B70F2E71B
:104010000B7002E08B7070470A704A70FAE700007C
:104020001401002030B41949194A0C7813785178DA
:104030009278022C0DD0012C09D1164C01281DD0EC
:104040000120C4F8B802C4F8B402C4F8BC0230BC01
:104050007047012803D000221146104605E03BB10D
:10406000002039B100213AB1002230BC00F014B870
:10407000FF20F6E7FF21F6E7FF22F6E7C4F8B832A3
:10408000C4F8B412C4F8BC22E1E70000FC98002098
:10409000140100200080414270B514460D4608F01E
:1040A0001FFF074B1860284608F01AFF0549886370
:1040B000204608F015FF0249091F086070BD000086
:1040C000381800400040014070B53C21D020FFF777
:1040D00023FD04463B21D020FFF71EFD04EB00200A
:1040E000184C3E21E083D020FFF716FD05463D2108
:1040F000D020FFF711FD05EB002020844021D020C7
:10410000FFF70AFD05463F21D020FFF705FD05EB2F
:1041100000200D4900B260844968B1F57A7F0FDB59
:10412000E18BA181228CE28120822388C91AE1835C
:104130006188511A2184A188401A00F5804060846A
:1041400070BD000028030020FC98002070B54421B9
:10415000D020FFF7E1FC04464321D020FFF7DCFC30
:1041600004EB0020174C46212083D020FFF7D4FC1D
:1041700005464521D020FFF7CFFC05EB00206083EA
:104180004821D020FFF7C8FC05464721D020FFF783
:10419000C3FC05EB00200C4900B2A0834968B1F5CF
:1041A0007A7F0DDB218B6182628BA282E082E388C1
:1041B000C91A21832189511A61836189401AA08318
:1041C00070BD000028030020FC980020BC2801D30B
:1041D000012210E0622801D302220CE02A2801D338
:1041E000032208E0142801D3042204E00A2801D3A2
:1041F000052200E006221A21D020FFF775BD10B578
:1042000004464FF47A70844201D9044602E0042C3B
:1042100000D20424B0FBF4F0401EC2B21921D02019
:10422000FFF762FD6008BDE81040FFF7CFBF7521C2
:10423000D020FFF771BC10B580226B21D020FFF792
:1042400053FDC82007F0D4FB00226B21D020FFF7DC
:104250004BFD012000F03AF8002000F02EF832204B
:10426000FFF7CDFF00223821D020FFF73DFD0022CF
:104270006A21D020FFF738FD00222321D020FFF74C
:1042800033FD80223721D020FFF72EFD7521D0206D
:10429000FFF742FC682801D0012010BD01226B21EC
:1042A000D020FFF721FD00226C21D020FFF71CFD5C
:1042B0003220FFF7A4FF002010BD08B502230090B4
:1042C00004221C21D020FFF7B9FC08BD08B5022349
:1042D000009004221B21D020FFF7B0FC08BD000095
:1042E00008B507F01FFC0F4F0D4C4FF47A7507F11E
:1042F000180807F11E0600900A21684609F04CFCD8
:104300006068A84207DA4146B81DFFF775FD3146DF
:104310000448FFF771FDFFF7D7FEFFF717FFEBE744
:10432000FC98002028030020124910B510480860AE
:1043300001221149114803F041FE08B1FEF796F938
:104340000F490E4804F044FA08B1FEF78FF90D4901
:104350000A4804F03DFA08B1FEF788F9074804F06E
:104360007EFA002803D0BDE81040FEF77FB910BDEB
:10437000240100202001002075880008EC8800201E
:10438000B8010020D8010020FEE7000070B501212F
:10439000022001F0FDF80121022001F0F9F80121CD
:1043A000042001F0F5F80121102001F0F1F80121BD
:1043B000082001F0EDF80121082001F0E9F80121C1
:1043C000042001F0E5F80121084601F0E1F81E4D56
:1043D0004FF400512846FEF763FAAC1421462846F4
:1043E000FEF75EFA194D01212846FEF759FAE10061
:1043F0001748FEF755FA174EA1103046FEF750FA4F
:1044000021463046FEF74CFA21462846FEF748FA88
:1044100021111148FEF744FA10490020C1F8B402F6
:10442000C1F8B0020E4AC2F880020E49C1F8BC02BF
:104430000D49C1F8A802C1F8B002C2F8B0020B4998
:10444000C1F8A00270BD0000000402400008024054
:1044500000100240000C0240000002400080404278
:1044600000004142000042420080414200004042C0
:104470002DE9FE430C460546FFF788FF0121022087
:1044800001F0AAF80121042001F082F801210220A4
:1044900001F0A2F80121042001F07AF801210220A4
:1044A00001F09AF80121042001F072F801210220A4
:1044B00001F092F80121042001F06AF8144FDFF8AE
:1044C0005480CDE90054002604233A46D9014046E1
:1044D000029602F0F1F9CDE9005403233A46B915EA
:1044E0004046029602F0E8F9CDE9005402233A462C
:1044F00080214046029602F0DFF9CDE90054012305
:104500003A4640214046029602F0D6F9BDE8FE83C5
:1045100000040140000802407047000030B50F233E
:10452000C27801780125FAB1144A126801F1E0213C
:1045300002F4E062C2F5E062C2F30722C2F10404B1
:10454000D3404278A24084781C401443220181F871
:104550000024007800F01F018D404009800000F128
:10456000E020C0F8005130BD01F01F00854048092F
:10457000800000F1E020C0F8805130BD0CED00E07B
:104580000249084302490860704700000000FA052C
:104590000CED00E030B40021084B0A46002003EB8C
:1045A000C004401CC0B262548028F8D3491CC9B270
:1045B0000829F3D330BC00F011B90000CC810020F1
:1045C00010B50021074B0A46002003EBC004401C35
:1045D000C0B262548028F8D3491CC9B20829F3D369
:1045E00010BD0000CC8100202DE9F0471F46904609
:1045F0000E4682460025DDF8209011E031465046F7
:1046000000F034F9544607E019F8050001216D1C4B
:1046100000F0EEFB641CE4B24445F5D3761CF6B220
:10462000BE42EBD3BDE8F08710B57F2816D83F29EE
:1046300014D80723A3EBD10301F00701C1F107044C
:104640000121A140064CDBB204EBC000002AC25C91
:10465000C9B201D00A4300E08A43C25410BD000031
:10466000CC8100207CB50121082000F091FF0125BC
:104670008DF80450002480208DF80640514E0090A3
:104680008DF805408DF8074069463046FEF7CCF8B6
:104690008DF8045040208DF8064000908DF80540BC
:1046A0008DF8074069463046FEF7BEF88DF8045095
:1046B00020208DF8064000908DF805408DF80740C9
:1046C00069463046FEF7B0F88DF8045010208DF89A
:1046D000064000908DF805408DF807406946304649
:1046E000FEF7A2F8384EC6F89442642006F5257607
:1046F00007F07EF935600021AE2000F079FB002143
:10470000D52000F075FB0021502000F071FB002146
:10471000A82000F06DFB00213F2000F069FB002184
:10472000D32000F065FB0021084600F061FB00216A
:10473000402000F05DFB00218D2000F059FB00219E
:10474000142000F055FB0021202000F051FB002137
:10475000022000F04DFB0021A12000F049FB0021C8
:10476000C02000F045FB0021DA2000F041FB0021D1
:10477000122000F03DFB0021812000F039FB0021D8
:10478000EF2000F035FB0021D92000F031FB0021A3
:10479000F12000F02DFB0021DB2000F029FB00219F
:1047A000302000F025FB0021A42000F021FB002197
:1047B000A62000F01DFB0021AF2000F019FBFFF741
:1047C000E9FE7CBD000C02400080414201210170E5
:1047D0004170002181700321C170704770B5104E87
:1047E000002505F1B000C0B2002100F001FB00215E
:1047F000084600F0FDFA0021102000F0F9FA00242C
:1048000006EBC4000121405D00F0F2FA641CE4B242
:10481000802CF5D36D1CEDB2082DE2D370BD0000E5
:10482000CC81002070B5104E002505F1B000C0B25B
:10483000002100F0DDFA0021084600F0D9FA00213D
:10484000102000F0D5FA002406EBC4000121405DE1
:1048500000F0CEFA641CE4B2802CF5D36D1CEDB2EE
:10486000022DE2D370BD0000CC81002010B50446BB
:10487000B031C8B2002100F0BBFA102040EA141099
:10488000002100F0B5FA04F00F00BDE8104000214F
:1048900000F0AEBA2DE9F05F203A98460D46834607
:1048A000894602F0FF0A00262EE0B8F10C0F08D06E
:1048B000174901EB0A100027845D200607D50A9AE4
:1048C00008E014490AEB4A0001EB8000F3E70A987C
:1048D00090B1002229465846FFF7A6FE6D1C6006DF
:1048E000EDB2040EA5EB0901414507D10BF1010022
:1048F0004D4600F0FF0B05E00122EBE77F1CFFB205
:10490000082FDAD3761CF6B24645CED3BDE8F09F29
:10491000B4F2000840EE000801490020087070471A
:10492000380000202DE9FF4F81B00027DDF838B0B6
:104930001D46924680463C464FF001094FEA5B0611
:104940002BE0281B401E0A22C0B2012100E0514387
:10495000401EC0B2FBD2BAFBF1F00A21B0FBF1F26B
:1049600001FB120027B9691E8C4201DA48B1012708
:104970003030C2B206FB0480C0B25B46CDF8009076
:1049800006E006FB0480C0B25B462022CDF8009012
:104990000299FFF77FFF641CE4B2AC42D1D305B0AB
:1049A000BDE8F08FF8B516460D460446012714E021
:1049B0007A2C02D900241035EDB23A2D03D9002407
:1049C0002546FFF7E7FD009732780C23294620465D
:1049D000FFF760FF0834E4B2761C30780028E7D196
:1049E000F8BD0000F8B5AF4D28786978884206D048
:1049F000FFF7D0FDFFF7F2FE28786870F8BDAA4EE9
:104A0000AA4F0C246870012806D002287DD0032804
:104A10007CD000287BD039E140F249250A210C20C6
:104A2000FEF780F8B0FBF5F5B07900B3A0A2002145
:104A30000846FFF7B7FFA0480078D0B19FA2002139
:104A40002620FFF7AFFF9EA200213C20FFF7AAFF20
:104A50009C4DB5F91C00002813DA9BA200215020C0
:104A6000FFF7A0FF0094B5F91C00424211E097A2A5
:104A7000DDE702232A46002128200094FFF752FF99
:104A8000E1E794A200215020FFF78CFF0094B5F9D4
:104A90001C20052300215A20FFF744FF8E4C20786C
:104AA000C10701D08DA212E0810701D58DA20EE0D1
:104AB000410701D58DA20AE0010701D58DA206E0CC
:104AC000C10601D58DA202E0800604D58DA2322157
:104AD0000020FFF767FF6078E8B18CA232212D201B
:104AE000FFF760FF022397ED170A1A4632214B2089
:104AF00007F0CCFB7AA232214B20FFF753FF84A2B0
:104B000032217820FFF74EFF02E006E03DE06DE045
:104B100007F09CFABAE07FA2E0E77FA2002107201D
:104B2000FFF740FF0094327801230A210920FFF7A4
:104B3000F9FE0094727801230A212720FFF7F2FE84
:104B40000094F27801230A214520FFF7EBFE009440
:104B5000B27801230A216320FFF7E4FE72A21E212E
:104B60000020FFF71FFF72A21E214B20FFF71AFF44
:104B7000D6ED030A9FED6F1A02231E2180EE810AF3
:104B80001A46084607F082FB80E000216AA2084628
:104B9000FFF708FF6BA200214220FFF703FF6BA283
:104BA0000F210020FFF7FEFE009497F85820022303
:104BB0000F214220FFF7B6FE67A21E210020FFF75B
:104BC000F1FE674C207806F089FF02461E21422044
:104BD000FFF7E8FE63A22D210020FFF7E3FE6078D7
:104BE00006F092FF02462D2142204DE05F4C607896
:104BF000012804D0012698B1022815D046E05C486F
:104C000000900723602201212020FFF7EDFC59A22C
:104C100032210C20FFF7C6FEBDE8F840FFF702BEC8
:104C2000FFF7CEFC2E7031E01E4910398888401CF9
:104C300080B288801E2802D3002088802E70FFF763
:104C4000BFFC00214EA20846FFF7ACFE50A20F2188
:104C50000020FFF7A7FEA07802281BD0032819D058
:104C6000042819D0052819D04CA21E210020FFF7D6
:104C700099FE4EA22D210020FFF794FE20780128F6
:104C80000ED04DA22D215A20FFF78CFEBDE8F84032
:104C9000FFF7A4BD49A2E8E74CA2E6E74FA2E4E78C
:104CA00052A2EFE738000020748100204405002064
:104CB00052434D203A0000007402002020580000AA
:104CC000475A0000280300202D0000005459504589
:104CD0003A0000002B0000003C020020524F5320FD
:104CE000200000005053322020000000415050208E
:104CF00020000000522D43202000000043414E20A0
:104D00002000000055534152540000004F46460019
:104D100056000000204F4E004C4120204C422020E5
:104D200052422020524100006375723A0000000098
:104D30004100000000007A444361724D6F64653A9F
:104D4000000000004F4D4E490000000043617254C6
:104D50007970653A0000000048575F5665723A0066
:104D6000FC98002053575F5665723A001D010020E1
:104D7000E402010855534220496E69742E2E00004A
:104D800055534220496E6974204F4B2E000000009D
:104D900050533220496E666F3A000000556E4B6EDC
:104DA0006F776E20446576200000000044617461D6
:104DB0002052656164793A004E6F20005769726530
:104DC000642055534250533200000000322E3447C5
:104DD00020555342505332200000000078626F7813
:104DE0002033363020202020000000005965730059
:104DF00030B500230E4A012411B1C2F8904201E0FF
:104E0000C2F890320021C2F89C32050602D5C2F8E1
:104E1000984201E0C2F89832C2F89C424006491C10
:104E2000000EC9B20829EED3C2F8904230BD00008E
:104E3000008041420148FEF75DB800001C9500204B
:104E400082680021002A01DD521E8260002A01DAF8
:104E5000521C8260521C032A02D20021816001216F
:104E6000084670479FED050A002380ED000A80ED9B
:104E7000010A8360C0E903127047000000000000CF
:104E80009FED040A002180ED000A80ED010A816097
:104E90007047000000000000002900DDC160002A0A
:104EA00000DD0261704700002DE9F8430125074647
:104EB000ADF80050204800264670ADF800501F4C59
:104EC00080464FF6FF792DE0BDF80000384202D051
:104ED000C4F8845201E0C4F88462102006F0A4FDF6
:104EE000C4F88C52052006F09FFDC4F88C620520A2
:104EF00006F09AFDC4F88C52102006F095FDD4F807
:104F0000000230B198F80110BDF80020114388F874
:104F10000110102006F088FDBDF8001009EA4100DC
:104F2000ADF80000BDF80000FF28CDD9BDE8F8437A
:104F3000102006F079BD0000CC8500200000424220
:104F400070B50020274C05462554401CC0B20928E6
:104F5000FAD300F0E3F86678412E03D0202E01D07A
:104F6000FF2E07D100F02EF909221F491D48FBF73B
:104F700085F9667000210846225C401C1144C0B2CD
:104F8000C9B20928F8D3184A1C3A71B115702068C3
:104F900042F8250F60685060207A1072B4F8030060
:104FA000C04380B222F8210C70BD1078401CC0B202
:104FB00010700A280BD90B201070D069C2F8250098
:104FC000106AC2F8290092F8240082F82D00D2F865
:104FD00025002060D2F82900606092F82D00207230
:104FE000D5E70000CC850020700100202DE9FC41B0
:104FF0000121102000F0CCFA0121102000F0C8FAA5
:105000000121102000F0C4FA0121102000F0C0FAA4
:1050100000258DF8045003208DF805001B4F012456
:10502000022600948DF8076069463846FDF7FCFBC0
:105030008DF804408DF806508DF8055000968DF8D7
:10504000074069463846FDF7EFFB8DF80440042021
:105050008DF8065000908DF805508DF80740694690
:105060003846FDF7E1FB8DF8044008208DF8065026
:1050700000908DF805508DF8074069463846FDF7D9
:10508000D3FB00F09FF8BDE8FC8100000010024057
:105090000349042008700449024808607047000072
:1050A0001C0100205C0100202001002070B5FFF7EA
:1050B00047FF1848184CC1792170017AC1F1FF01EE
:1050C00061704179A1708079E0700820FCF70CFCD8
:1050D000FF25002608B1257100E026710920FCF7A4
:1050E00003FC08B1657100E066710A4D0A4E0024A8
:1050F0000C35083E05EB04112246B088FDF7B0FCE4
:10510000010002D02046FCF7F9FB641CE4B20F2C2E
:10511000F0D970BDCC8500205C0100202DE9FC4158
:1051200000268DF800600125ADF80450224CC4F82B
:105130008862224F3878FFF7B7FE7878FFF7B4FE21
:1051400002208DF800001E4F4FF6FF782CE0ADF8DE
:1051500004501DE0C4F88C52052006F065FCC4F82C
:105160008C62052006F060FCC4F88C52D4F8000272
:1051700040B19DF80000BDF80410385C08439DF86C
:1051800000107854BDF8041008EA4100ADF804009E
:10519000BDF80400FF28DDD9102006F045FC9DF87D
:1051A0000000401C8DF800009DF800000928CED3B7
:1051B000C4F88852BDE8FC8100004242550100203D
:1051C000CC85002070B500F075F800F073F800F0A1
:1051D00071F8374C0025C4F88852102004F5227469
:1051E00006F022FC0120FFF75FFE4320FFF75CFE84
:1051F0000020FFF759FE0120FFF756FE0020FFF7C1
:1052000053FE0020FFF750FE0020FFF74DFE002068
:10521000FFF74AFE0020FFF747FE01262660102018
:1052200006F002FC25600120FFF73EFE4420FFF758
:105230003BFE0020FFF738FE0120FFF735FE03207C
:10524000FFF732FE0020FFF72FFE0020FFF72CFEB5
:105250000020FFF729FE0020FFF726FE2660102021
:1052600006F0E2FB2560102006F0DEFB0120FFF7D0
:105270001BFE4320FFF718FE0020FFF715FE00205D
:10528000FFF712FE5A20FFF70FFE5A20FFF70CFE21
:105290005A20FFF709FE5A20FFF706FE5A20FFF7B3
:1052A00003FE2660BDE87040102006F0BDBB000084
:1052B0000000424210B50F4C0020C4F888021020B4
:1052C00004F5227406F0B0FB0120FFF7EDFD42204B
:1052D000FFF7EAFD0020FFF7E7FD0020FFF7E4FD00
:1052E0000020FFF7E1FD01202060BDE81040102004
:1052F00006F09ABB000042422DE9F0412DED088BEB
:105300009FED8CBADFED8CAAB0EE6A9ADFED8BBA16
:105310008B4C8C4F4FF000082078401CC0B220709E
:105320009FED89AA894E8A4D322820D138780228EB
:105330001DD132202070874901206070C1F8E40936
:105340000023D1F8DC091A4601F6E41107F068F8E9
:1053500028687F2141700170817080F8058080F895
:10536000048086ED01AA86ED02AA86ED03AA2868CC
:1053700041787F3900EE101A0178F8EEC08AC1F149
:105380007F0100EE101A8178F8EEC09AC1F17F011A
:1053900000EE101A7049B8EEC08AB0EEE80A10EEBE
:1053A000102A8A4201DAF0EE4A8AB0EEE90A10EEDB
:1053B000102A8A4201DAF0EE4A9AB0EEC80A10EEDC
:1053C000102A8A4201DAB0EE4A8A6449097805292E
:1053D00004D002291DD003291BD02FE0BDEEE80A1E
:1053E00010EE101A11BB0179407909B130B10DE00E
:1053F00060B100EE100AB8EE409A04E0484200EEB8
:10540000100AB8EEC09AF0EE4B8A17E0B0EE4A9A56
:1054100014E0B0EEC80A10EE101A514A91420DDAAB
:10542000C1680F20884710B1B0EE4B8A06E02868AB
:10543000C1680D20884708B19FED4A8AC8EE8B0AE3
:1054400096ED0B0A89EE2A1A60EE800AC8EE0B1A56
:1054500060EE810AC6ED010A89EE8B1A61EEAB1A85
:1054600021EE001A86ED021A9FED3F2AF5EEC00AE2
:10547000C0EE022A21EEA20AF1EE10FA86ED030A2E
:1054800003D2B1EE400A86ED030ADFED381A80EE52
:10549000A10AC1EE210A86ED010AC6ED020A96EDC7
:1054A000031AFCF71FFF3248DFED320A3249B0F928
:1054B000220000EE100AB8EEC00A80EE208A94EDB9
:1054C000030A30EE480AB0EEC00A10EE100A884215
:1054D00029DD7868B0F57A7F25DD2868826812B307
:1054E00010EE100A2549884201DA404619E010EE14
:1054F000100A2349884201DD9FED220ADFED220ACE
:105500009FED221A30EE600A60EE2A0A80EE810AD0
:10551000F6EE000A30EE200ABCEEC00A10EE100AC9
:10552000C0B20021904784ED038ABDEC088BBDE832
:10553000F08100000000FE4200007F43DB0F493F86
:1055400000000020FC980020000000003C02002029
:1055500020010020EC8800200000A0411C01002058
:1055600017B7D1380000FEC20000FA4300007A44A9
:1055700028030020E1FAD0449A99193FCDCCCC3DC4
:105580009A99993F9A99993FCDCCCC3DCDCC8C3FFF
:10559000044A0029116801D0014300E081431160F1
:1055A0007047000030380240044A0029116801D0D9
:1055B000014300E08143116070470000343802402D
:1055C000044A0029116801D0014300E081431160C1
:1055D0007047000040380240044A0029116801D099
:1055E000014300E0814311607047000044380240ED
:1055F000044A0029116801D0014300E08143116091
:10560000704700002438024070B5204B1968204CC8
:1056100011F00C0104D06610042903D0082903D02E
:1056200004601BE0066019E0184A121F1168C1F3FC
:105630008055116801F03F0115B1B6FBF1F101E0B1
:10564000B4FBF1F114681268C4F388146143C2F327
:105650000142521C5200B1FBF2F1016019680F22A5
:1056600002EA11110B4A545C0168E14041601C6878
:10567000072505EA9424145D21FA04F484601B686C
:1056800005EA5333D25CD140C16070BD0838024096
:105690000024F40088000020FEB501210220FFF75D
:1056A00077FF01214020FFF78BFF01211020FFF73A
:1056B0006FFF01210804FFF78FFF01210220FFF790
:1056C00067FF01214020FFF77BFFFF2007F008FC68
:1056D00042F20F7480B253250094CDE90150144E6C
:1056E000144F022332469903384603F017FEFF2079
:1056F00007F0F6FB80B2A7210094CDE90110022348
:105700000D4A40210D4803F009FEFF2007F0E8FB99
:1057100080B20094CDE90150012332469903384606
:1057200003F0FCFDBDE8FE400020FEF753BC000086
:1057300000180040000402400040014000100240F8
:10574000B0EE0C0A80ED0C0A9FED110A002180EDED
:105750000B0A9FED100A012280ED070AB3EE040A3E
:1057600080ED080A9FED0C0AC17080ED010A80ED02
:10577000020A80ED030A80ED040A80ED050A80ED3F
:10578000060A817002704170322141637047000047
:105790000000FA430AD7A33C00000000002138B102
:1057A00001280BD002280BD003280BD00020704713
:1057B0004FF08042506A516200B27047044A02E0E2
:1057C000044A00E0044A1068116000B2704700000B
:1057D0002404004024080040240C0040014951F8F2
:1057E000200070470000060870B52DED028B9FED7C
:1057F000548A544C4FF4FA656E102A46314620689C
:1058000007F0F0FF20602A463146606807F0EAFFA3
:1058100060602A463146A06807F0E4FFA0602A468F
:105820003146E06807F0DEFFE060D4E90032A168AD
:10583000A3F2DC535B426FF06304A2F2DC52A0F2ED
:10584000DC50A1F2DC51A24202DD642A00DA00221F
:10585000A04202DD642800DA0020A14202DD6429B2
:1058600000DA0021A34202DD642B00DA002300EEFF
:10587000101A354CB8EEC00AD4ED0B0A30EE800A8F
:10588000BDEEC00A10EE101A002900DA002100EE69
:10589000102A9FED2E1A4042F8EEC00A00EE101AB0
:1058A00004F10405B8EEC00A60EE800A80EE810AB9
:1058B00000EE900AF8EEE01A00EE901AF8EEE00A18
:1058C00061EEA01AC1EE810A01EE903AB5EEC00A6F
:1058D000B8EEE12AC2EE011A21EE882A01EE901AF2
:1058E000F8EEE11AC1EE812A22EE221AF1EE10FA48
:1058F00085EC030A03D2B1EE411A84ED031A9FED41
:10590000141A1449C0EE011A80EE810AC4ED011A7E
:1059100084ED020AC87848B19FED0F0A401E84ED5D
:10592000010A84ED020A84ED030AC870241D94EC78
:10593000030ABDEC028BBDE87040FCF7D3BC00004D
:10594000DB0F493FD88600203C0200200000FA43CC
:1059500000007A4400000020000000002DE9F04320
:10596000012187B00846FFF737FE01211020FFF71D
:105970000FFE01211020FFF70BFE01211020FFF781
:1059800007FE01211020FFF703FE494D4FF400747C
:1059900021462846FCF7FEFEA70039462846FCF7BC
:1059A000F9FE4FF4005841462846FCF7F3FE4FF449
:1059B000804949462846FCF7EDFE3E4E21463246D8
:1059C0002846FCF7FDFF324639462846FCF7F8FF2B
:1059D000324641462846FCF7F3FF32464946284600
:1059E000FCF7EEFF42F20F700490A720ADF80C0018
:1059F0000024ADF81440ADF80E4003A9304600F085
:105A000013FF01250F20ADF80040ADF80450ADF8AC
:105A10000800ADF80240ADF806406946304600F097
:105A200049FD0420ADF80000ADF80450ADF8024087
:105A3000ADF80640ADF808406946304600F03AFD42
:105A40000820ADF80000ADF80450ADF80240ADF804
:105A50000640ADF808406946304600F02BFD0C20AA
:105A6000ADF80000ADF80450ADF80240ADF80640C6
:105A7000ADF808406946304600F01CFD1B208DF84B
:105A8000180005208DF819008DF81A408DF81B506C
:105A900006A8FEF743FD01221E21304600F068FDF6
:105AA0000121304600F0C4FC07B0BDE8F0830000DF
:105AB000001002400000014040F2DC514FF47A72C5
:105AC0000160C0E90112C16000210182704700003D
:105AD00038B5174C1748D4ED0A0A94ED0B0AFEF7B7
